{
  "contractName": "TodoList",
  "abi": [
    {
      "inputs": [],
      "stateMutability": "nonpayable",
      "type": "constructor"
    },
    {
      "anonymous": false,
      "inputs": [
        {
          "indexed": true,
          "internalType": "uint256",
          "name": "id",
          "type": "uint256"
        },
        {
          "indexed": false,
          "internalType": "string",
          "name": "title",
          "type": "string"
        }
      ],
      "name": "TodoCreated",
      "type": "event"
    },
    {
      "anonymous": false,
      "inputs": [
        {
          "indexed": true,
          "internalType": "uint256",
          "name": "id",
          "type": "uint256"
        }
      ],
      "name": "TodoDeleted",
      "type": "event"
    },
    {
      "anonymous": false,
      "inputs": [
        {
          "indexed": true,
          "internalType": "uint256",
          "name": "id",
          "type": "uint256"
        },
        {
          "indexed": false,
          "internalType": "enum TodoList.Status",
          "name": "status",
          "type": "uint8"
        }
      ],
      "name": "TodoUpdated",
      "type": "event"
    },
    {
      "inputs": [],
      "name": "owner",
      "outputs": [
        {
          "internalType": "address",
          "name": "",
          "type": "address"
        }
      ],
      "stateMutability": "view",
      "type": "function",
      "constant": true
    },
    {
      "inputs": [
        {
          "internalType": "string",
          "name": "_title",
          "type": "string"
        },
        {
          "internalType": "string",
          "name": "_description",
          "type": "string"
        }
      ],
      "name": "createTodo",
      "outputs": [],
      "stateMutability": "nonpayable",
      "type": "function"
    },
    {
      "inputs": [
        {
          "internalType": "uint256",
          "name": "_id",
          "type": "uint256"
        },
        {
          "internalType": "uint256",
          "name": "_status",
          "type": "uint256"
        }
      ],
      "name": "updateTodoStatus",
      "outputs": [],
      "stateMutability": "nonpayable",
      "type": "function"
    },
    {
      "inputs": [],
      "name": "getUserTodos",
      "outputs": [
        {
          "components": [
            {
              "internalType": "uint256",
              "name": "id",
              "type": "uint256"
            },
            {
              "internalType": "string",
              "name": "title",
              "type": "string"
            },
            {
              "internalType": "string",
              "name": "description",
              "type": "string"
            },
            {
              "internalType": "enum TodoList.Status",
              "name": "status",
              "type": "uint8"
            },
            {
              "internalType": "address",
              "name": "owner",
              "type": "address"
            }
          ],
          "internalType": "struct TodoList.Todo[]",
          "name": "",
          "type": "tuple[]"
        }
      ],
      "stateMutability": "view",
      "type": "function",
      "constant": true
    },
    {
      "inputs": [
        {
          "internalType": "uint256",
          "name": "_id",
          "type": "uint256"
        }
      ],
      "name": "deleteTodo",
      "outputs": [],
      "stateMutability": "nonpayable",
      "type": "function"
    },
    {
      "inputs": [],
      "name": "getAllTodos",
      "outputs": [
        {
          "components": [
            {
              "internalType": "uint256",
              "name": "id",
              "type": "uint256"
            },
            {
              "internalType": "string",
              "name": "title",
              "type": "string"
            },
            {
              "internalType": "string",
              "name": "description",
              "type": "string"
            },
            {
              "internalType": "enum TodoList.Status",
              "name": "status",
              "type": "uint8"
            },
            {
              "internalType": "address",
              "name": "owner",
              "type": "address"
            }
          ],
          "internalType": "struct TodoList.Todo[]",
          "name": "",
          "type": "tuple[]"
        }
      ],
      "stateMutability": "view",
      "type": "function",
      "constant": true
    }
  ],
  "bytecode": "0x608060405234801561001057600080fd5b50306000806101000a81548173ffffffffffffffffffffffffffffffffffffffff021916908373ffffffffffffffffffffffffffffffffffffffff1602179055506118ca806100606000396000f3fe608060405234801561001057600080fd5b50600436106100625760003560e01c80633380b99f146100675780635de2fa75146100835780636e3c6738146100a15780638da5cb5b146100bd578063ce2bd5d5146100db578063ee2e3651146100f9575b600080fd5b610081600480360381019061007c9190611101565b610115565b005b61008b61037b565b6040516100989190611411565b60405180910390f35b6100bb60048036038101906100b6919061145f565b6106d9565b005b6100c5610969565b6040516100d2919061149b565b60405180910390f35b6100e361098d565b6040516100f09190611411565b60405180910390f35b610113600480360381019061010e91906114b6565b610bab565b005b6000600160003373ffffffffffffffffffffffffffffffffffffffff1673ffffffffffffffffffffffffffffffffffffffff16815260200190815260200160002054905060006040518060a001604052808381526020018581526020018481526020016001600281111561018c5761018b611246565b5b81526020013373ffffffffffffffffffffffffffffffffffffffff168152509050336002600084815260200190815260200160002060006101000a81548173ffffffffffffffffffffffffffffffffffffffff021916908373ffffffffffffffffffffffffffffffffffffffff1602179055506003819080600181540180825580915050600190039060005260206000209060040201600090919091909150600082015181600001556020820151816001019080519060200190610251929190610e6d565b50604082015181600201908051906020019061026e929190610e6d565b5060608201518160030160006101000a81548160ff0219169083600281111561029a57610299611246565b5b021790555060808201518160030160016101000a81548173ffffffffffffffffffffffffffffffffffffffff021916908373ffffffffffffffffffffffffffffffffffffffff1602179055505050600160003373ffffffffffffffffffffffffffffffffffffffff1673ffffffffffffffffffffffffffffffffffffffff168152602001908152602001600020600081548092919061033890611525565b9190505550817f8106597ec7f7cdf5d557a8206e1ef280e0ca13186b4776b6302ab662cef0dba68560405161036d91906115b8565b60405180910390a250505050565b606060003390506000600160008373ffffffffffffffffffffffffffffffffffffffff1673ffffffffffffffffffffffffffffffffffffffff1681526020019081526020016000205467ffffffffffffffff8111156103dd576103dc610fd6565b5b60405190808252806020026020018201604052801561041657816020015b610403610ef3565b8152602001906001900390816103fb5790505b5090506000805b6003805490508110156106cf578373ffffffffffffffffffffffffffffffffffffffff1660038281548110610455576104546115da565b5b906000526020600020906004020160030160019054906101000a900473ffffffffffffffffffffffffffffffffffffffff1673ffffffffffffffffffffffffffffffffffffffff1614156106bc57600381815481106104b7576104b66115da565b5b90600052602060002090600402016040518060a0016040529081600082015481526020016001820180546104ea90611638565b80601f016020809104026020016040519081016040528092919081815260200182805461051690611638565b80156105635780601f1061053857610100808354040283529160200191610563565b820191906000526020600020905b81548152906001019060200180831161054657829003601f168201915b5050505050815260200160028201805461057c90611638565b80601f01602080910402602001604051908101604052809291908181526020018280546105a890611638565b80156105f55780601f106105ca576101008083540402835291602001916105f5565b820191906000526020600020905b8154815290600101906020018083116105d857829003601f168201915b505050505081526020016003820160009054906101000a900460ff16600281111561062357610622611246565b5b600281111561063557610634611246565b5b81526020016003820160019054906101000a900473ffffffffffffffffffffffffffffffffffffffff1673ffffffffffffffffffffffffffffffffffffffff1673ffffffffffffffffffffffffffffffffffffffff16815250508383815181106106a2576106a16115da565b5b602002602001018190525081806106b890611525565b9250505b80806106c790611525565b91505061041d565b5081935050505090565b803373ffffffffffffffffffffffffffffffffffffffff166002600083815260200190815260200160002060009054906101000a900473ffffffffffffffffffffffffffffffffffffffff1673ffffffffffffffffffffffffffffffffffffffff161461077b576040517f08c379a0000000000000000000000000000000000000000000000000000000008152600401610772906116dc565b60405180910390fd5b6000600380549050116107c3576040517f08c379a00000000000000000000000000000000000000000000000000000000081526004016107ba90611748565b60405180910390fd5b6002600083815260200190815260200160002060006101000a81549073ffffffffffffffffffffffffffffffffffffffff02191690556000805b6003805490508110156108e157836003828154811061081f5761081e6115da565b5b90600052602060002090600402016000015414156108ce576003828154811061084b5761084a6115da565b5b90600052602060002090600402016000808201600090556001820160006108729190610f4a565b6002820160006108829190610f4a565b6003820160006101000a81549060ff02191690556003820160016101000a81549073ffffffffffffffffffffffffffffffffffffffff0219169055505081806108ca90611525565b9250505b80806108d990611525565b9150506107fd565b50600160003373ffffffffffffffffffffffffffffffffffffffff1673ffffffffffffffffffffffffffffffffffffffff168152602001908152602001600020600081548092919061093290611768565b9190505550827f1072e4eeea43a52d09f5b6dfc870a079948f706133840ce9239aebc57fabb65f60405160405180910390a2505050565b60008054906101000a900473ffffffffffffffffffffffffffffffffffffffff1681565b60606003805480602002602001604051908101604052809291908181526020016000905b82821015610ba257838290600052602060002090600402016040518060a0016040529081600082015481526020016001820180546109ee90611638565b80601f0160208091040260200160405190810160405280929190818152602001828054610a1a90611638565b8015610a675780601f10610a3c57610100808354040283529160200191610a67565b820191906000526020600020905b815481529060010190602001808311610a4a57829003601f168201915b50505050508152602001600282018054610a8090611638565b80601f0160208091040260200160405190810160405280929190818152602001828054610aac90611638565b8015610af95780601f10610ace57610100808354040283529160200191610af9565b820191906000526020600020905b815481529060010190602001808311610adc57829003601f168201915b505050505081526020016003820160009054906101000a900460ff166002811115610b2757610b26611246565b5b6002811115610b3957610b38611246565b5b81526020016003820160019054906101000a900473ffffffffffffffffffffffffffffffffffffffff1673ffffffffffffffffffffffffffffffffffffffff1673ffffffffffffffffffffffffffffffffffffffff1681525050815260200190600101906109b1565b50505050905090565b813373ffffffffffffffffffffffffffffffffffffffff166002600083815260200190815260200160002060009054906101000a900473ffffffffffffffffffffffffffffffffffffffff1673ffffffffffffffffffffffffffffffffffffffff1614610c4d576040517f08c379a0000000000000000000000000000000000000000000000000000000008152600401610c44906116dc565b60405180910390fd5b600060038054905011610c95576040517f08c379a0000000000000000000000000000000000000000000000000000000008152600401610c8c906117de565b60405180910390fd5b60008210158015610ca7575060028211155b610ce6576040517f08c379a0000000000000000000000000000000000000000000000000000000008152600401610cdd9061184a565b60405180910390fd5b6000805b600380549050811015610e1c578460038281548110610d0c57610d0b6115da565b5b9060005260206000209060040201600001541415610e0957836002811115610d3757610d36611246565b5b60038381548110610d4b57610d4a6115da565b5b906000526020600020906004020160030160006101000a81548160ff02191690836002811115610d7e57610d7d611246565b5b0217905550336002600060038581548110610d9c57610d9b6115da565b5b906000526020600020906004020160000154815260200190815260200160002060006101000a81548173ffffffffffffffffffffffffffffffffffffffff021916908373ffffffffffffffffffffffffffffffffffffffff1602179055508180610e0590611525565b9250505b8080610e1490611525565b915050610cea565b50837feb2c3cf569d40161891f3de7b8f2f2b10ba7c714588d833cd59d4dc45a641a42846002811115610e5257610e51611246565b5b604051610e5f9190611879565b60405180910390a250505050565b828054610e7990611638565b90600052602060002090601f016020900481019282610e9b5760008555610ee2565b82601f10610eb457805160ff1916838001178555610ee2565b82800160010185558215610ee2579182015b82811115610ee1578251825591602001919060010190610ec6565b5b509050610eef9190610f8a565b5090565b6040518060a0016040528060008152602001606081526020016060815260200160006002811115610f2757610f26611246565b5b8152602001600073ffffffffffffffffffffffffffffffffffffffff1681525090565b508054610f5690611638565b6000825580601f10610f685750610f87565b601f016020900490600052602060002090810190610f869190610f8a565b5b50565b5b80821115610fa3576000816000905550600101610f8b565b5090565b6000604051905090565b600080fd5b600080fd5b600080fd5b600080fd5b6000601f19601f8301169050919050565b7f4e487b7100000000000000000000000000000000000000000000000000000000600052604160045260246000fd5b61100e82610fc5565b810181811067ffffffffffffffff8211171561102d5761102c610fd6565b5b80604052505050565b6000611040610fa7565b905061104c8282611005565b919050565b600067ffffffffffffffff82111561106c5761106b610fd6565b5b61107582610fc5565b9050602081019050919050565b82818337600083830152505050565b60006110a461109f84611051565b611036565b9050828152602081018484840111156110c0576110bf610fc0565b5b6110cb848285611082565b509392505050565b600082601f8301126110e8576110e7610fbb565b5b81356110f8848260208601611091565b91505092915050565b6000806040838503121561111857611117610fb1565b5b600083013567ffffffffffffffff81111561113657611135610fb6565b5b611142858286016110d3565b925050602083013567ffffffffffffffff81111561116357611162610fb6565b5b61116f858286016110d3565b9150509250929050565b600081519050919050565b600082825260208201905092915050565b6000819050602082019050919050565b6000819050919050565b6111b8816111a5565b82525050565b600081519050919050565b600082825260208201905092915050565b60005b838110156111f85780820151818401526020810190506111dd565b83811115611207576000848401525b50505050565b6000611218826111be565b61122281856111c9565b93506112328185602086016111da565b61123b81610fc5565b840191505092915050565b7f4e487b7100000000000000000000000000000000000000000000000000000000600052602160045260246000fd5b6003811061128657611285611246565b5b50565b600081905061129782611275565b919050565b60006112a782611289565b9050919050565b6112b78161129c565b82525050565b600073ffffffffffffffffffffffffffffffffffffffff82169050919050565b60006112e8826112bd565b9050919050565b6112f8816112dd565b82525050565b600060a08301600083015161131660008601826111af565b506020830151848203602086015261132e828261120d565b91505060408301518482036040860152611348828261120d565b915050606083015161135d60608601826112ae565b50608083015161137060808601826112ef565b508091505092915050565b600061138783836112fe565b905092915050565b6000602082019050919050565b60006113a782611179565b6113b18185611184565b9350836020820285016113c385611195565b8060005b858110156113ff57848403895281516113e0858261137b565b94506113eb8361138f565b925060208a019950506001810190506113c7565b50829750879550505050505092915050565b6000602082019050818103600083015261142b818461139c565b905092915050565b61143c816111a5565b811461144757600080fd5b50565b60008135905061145981611433565b92915050565b60006020828403121561147557611474610fb1565b5b60006114838482850161144a565b91505092915050565b611495816112dd565b82525050565b60006020820190506114b0600083018461148c565b92915050565b600080604083850312156114cd576114cc610fb1565b5b60006114db8582860161144a565b92505060206114ec8582860161144a565b9150509250929050565b7f4e487b7100000000000000000000000000000000000000000000000000000000600052601160045260246000fd5b6000611530826111a5565b91507fffffffffffffffffffffffffffffffffffffffffffffffffffffffffffffffff821415611563576115626114f6565b5b600182019050919050565b600082825260208201905092915050565b600061158a826111be565b611594818561156e565b93506115a48185602086016111da565b6115ad81610fc5565b840191505092915050565b600060208201905081810360008301526115d2818461157f565b905092915050565b7f4e487b7100000000000000000000000000000000000000000000000000000000600052603260045260246000fd5b7f4e487b7100000000000000000000000000000000000000000000000000000000600052602260045260246000fd5b6000600282049050600182168061165057607f821691505b6020821081141561166457611663611609565b5b50919050565b7f596f7520617265206e6f7420746865206f776e6572206f662074686973206c6960008201527f7374000000000000000000000000000000000000000000000000000000000000602082015250565b60006116c660228361156e565b91506116d18261166a565b604082019050919050565b600060208201905081810360008301526116f5816116b9565b9050919050565b7f4e6f20746f646f7320746f2064656c6574650000000000000000000000000000600082015250565b600061173260128361156e565b915061173d826116fc565b602082019050919050565b6000602082019050818103600083015261176181611725565b9050919050565b6000611773826111a5565b91506000821415611787576117866114f6565b5b600182039050919050565b7f4e6f20746f646f7320746f207570646174650000000000000000000000000000600082015250565b60006117c860128361156e565b91506117d382611792565b602082019050919050565b600060208201905081810360008301526117f7816117bb565b9050919050565b7f496e76616c696420737461747573000000000000000000000000000000000000600082015250565b6000611834600e8361156e565b915061183f826117fe565b602082019050919050565b6000602082019050818103600083015261186381611827565b9050919050565b6118738161129c565b82525050565b600060208201905061188e600083018461186a565b9291505056fea26469706673582212204ccb61916e46992646966d86668b414396c681e769a68a21eeca2db11e90619064736f6c634300080b0033",
  "immutableReferences": {},
  "source": "// SPDX-License-Identifier: MIT\npragma solidity >=0.4.22 <0.9.0;\n\ncontract TodoList {\n  address public owner;\n\n  event TodoCreated(uint indexed id, string title);\n  event TodoUpdated(uint indexed id, Status status);\n  event TodoDeleted(uint indexed id);\n\n  enum Status {\n    done,\n    backlog,\n    in_progress    \n  }\n\n  struct Todo {\n    uint id;\n    string title; \n    string description;\n    Status status;\n    address owner;\n  }\n\n  mapping(address => uint) private userTodoCounter;\n  mapping(uint => address) private todoToUser;\n\n  Todo[] private todos;\n\n  constructor(){\n    owner = address(this);\n  }\n\n   modifier _onlyTodoOwner(uint _id) {\n    require(todoToUser[_id] == msg.sender, \"You are not the owner of this list\");\n    _;\n   } \n\n  function createTodo(\n    string memory _title,\n    string memory _description\n    ) public  {\n    \n    uint id = userTodoCounter[msg.sender];\n\n    Todo memory todo = Todo(id, _title, _description,Status.backlog, msg.sender);\n    todoToUser[id] = msg.sender;\n    todos.push(todo);\n    userTodoCounter[msg.sender]++;\n\n    emit TodoCreated(id, _title);\n\n  }\n\n  function updateTodoStatus(uint _id, uint _status) public _onlyTodoOwner(_id) {\n    require(todos.length > 0, \"No todos to update\");\n    require(_status >= 0 && _status <=2, \"Invalid status\");\n\n    uint _counter = 0;\n\n    for(uint i = 0; i < todos.length; i++){\n      if(todos[i].id == _id){\n        todos[_counter].status = Status(_status);\n        todoToUser[todos[_counter].id] = msg.sender;\n        _counter++;\n      }\n    }\n\n    emit TodoUpdated(_id, Status(_status));\n\n  }\n\n  function getUserTodos () external view returns(Todo[] memory) {\n      address _owner = msg.sender;\n      Todo[] memory userTodos = new Todo[](userTodoCounter[_owner]);\n\n      uint _counter = 0;\n\n      for(uint i = 0; i < todos.length; i++){\n        if(todos[i].owner == _owner){\n          userTodos[_counter] = todos[i];\n          _counter++;\n        }\n      }\n\n      return userTodos;\n  }\n\n  function deleteTodo(uint _id) public _onlyTodoOwner(_id) {\n    require(todos.length > 0, \"No todos to delete\");\n    delete todoToUser[_id];\n\n    uint _counter = 0;\n    for(uint i = 0; i < todos.length; i++){\n      if(todos[i].id == _id){\n        delete todos[_counter];\n        _counter++;\n      }\n    }\n\n    userTodoCounter[msg.sender]--;\n\n    emit TodoDeleted(_id);\n\n  }\n\n\n  function getAllTodos() public view returns(Todo[] memory) {\n    return todos;\n  }\n\n\n}\n\n\n\n",
  "sourcePath": "/home/pedrolucinda/repos/solidity/web3_todolist/truffle/contracts/TodoList.sol",
  "compiler": {
    "name": "solc",
    "version": "0.8.11+commit.d7f03943.Emscripten.clang"
  },
  "schemaVersion": "3.4.7",
  "updatedAt": "2022-05-05T11:44:47.716Z",
  "networkType": "ethereum",
  "devdoc": {
    "kind": "dev",
    "methods": {},
    "version": 1
  },
  "userdoc": {
    "kind": "user",
    "methods": {},
    "version": 1
  }
}